{
  "_format": "hh-sol-artifact-1",
  "contractName": "ProductPassport",
  "sourceName": "contracts/ProductPassport.sol",
  "abi": [
    {
      "inputs": [
        {
          "internalType": "string",
          "name": "_productID",
          "type": "string"
        },
        {
          "internalType": "string",
          "name": "_certifierHash",
          "type": "string"
        }
      ],
      "name": "certifyProduct",
      "outputs": [],
      "stateMutability": "nonpayable",
      "type": "function"
    },
    {
      "inputs": [
        {
          "internalType": "string",
          "name": "_productID",
          "type": "string"
        }
      ],
      "name": "getPassport",
      "outputs": [
        {
          "components": [
            {
              "internalType": "address",
              "name": "producer",
              "type": "address"
            },
            {
              "internalType": "address",
              "name": "factory",
              "type": "address"
            },
            {
              "internalType": "address",
              "name": "certifier",
              "type": "address"
            },
            {
              "internalType": "string",
              "name": "originHash",
              "type": "string"
            },
            {
              "internalType": "string",
              "name": "factoryHash",
              "type": "string"
            },
            {
              "internalType": "string",
              "name": "certifierHash",
              "type": "string"
            },
            {
              "internalType": "uint256",
              "name": "timestamp",
              "type": "uint256"
            }
          ],
          "internalType": "struct ProductPassport.Passport",
          "name": "",
          "type": "tuple"
        }
      ],
      "stateMutability": "view",
      "type": "function"
    },
    {
      "inputs": [
        {
          "internalType": "string",
          "name": "",
          "type": "string"
        }
      ],
      "name": "passports",
      "outputs": [
        {
          "internalType": "address",
          "name": "producer",
          "type": "address"
        },
        {
          "internalType": "address",
          "name": "factory",
          "type": "address"
        },
        {
          "internalType": "address",
          "name": "certifier",
          "type": "address"
        },
        {
          "internalType": "string",
          "name": "originHash",
          "type": "string"
        },
        {
          "internalType": "string",
          "name": "factoryHash",
          "type": "string"
        },
        {
          "internalType": "string",
          "name": "certifierHash",
          "type": "string"
        },
        {
          "internalType": "uint256",
          "name": "timestamp",
          "type": "uint256"
        }
      ],
      "stateMutability": "view",
      "type": "function"
    },
    {
      "inputs": [
        {
          "internalType": "string",
          "name": "_productID",
          "type": "string"
        },
        {
          "internalType": "string",
          "name": "_originHash",
          "type": "string"
        }
      ],
      "name": "registerOrigin",
      "outputs": [],
      "stateMutability": "nonpayable",
      "type": "function"
    },
    {
      "inputs": [
        {
          "internalType": "string",
          "name": "_productID",
          "type": "string"
        },
        {
          "internalType": "string",
          "name": "_factoryHash",
          "type": "string"
        }
      ],
      "name": "updateFactory",
      "outputs": [],
      "stateMutability": "nonpayable",
      "type": "function"
    }
  ],
  "bytecode": "0x6080604052348015600f57600080fd5b506117b48061001f6000396000f3fe608060405234801561001057600080fd5b50600436106100575760003560e01c80631a9386911461005c5780637e8b4bed14610078578063904a6751146100ae578063bb80abcc146100de578063d814ea2c146100fa575b600080fd5b61007660048036038101906100719190610e73565b610116565b005b610092600480360381019061008d9190610eeb565b6102bc565b6040516100a5979695949392919061100d565b60405180910390f35b6100c860048036038101906100c39190610eeb565b61050c565b6040516100d591906111a3565b60405180910390f35b6100f860048036038101906100f39190610e73565b610869565b005b610114600480360381019061010f9190610e73565b610a5c565b005b600080836040516101279190611201565b90815260200160405180910390206006015403610179576040517f08c379a000000000000000000000000000000000000000000000000000000000815260040161017090611264565b60405180910390fd5b600073ffffffffffffffffffffffffffffffffffffffff166000836040516101a19190611201565b908152602001604051809103902060010160009054906101000a900473ffffffffffffffffffffffffffffffffffffffff1673ffffffffffffffffffffffffffffffffffffffff1614610229576040517f08c379a0000000000000000000000000000000000000000000000000000000008152600401610220906112d0565b60405180910390fd5b3360008360405161023a9190611201565b908152602001604051809103902060010160006101000a81548173ffffffffffffffffffffffffffffffffffffffff021916908373ffffffffffffffffffffffffffffffffffffffff1602179055508060008360405161029a9190611201565b908152602001604051809103902060040190816102b791906114fc565b505050565b6000818051602081018201805184825260208301602085012081835280955050505050506000915090508060000160009054906101000a900473ffffffffffffffffffffffffffffffffffffffff16908060010160009054906101000a900473ffffffffffffffffffffffffffffffffffffffff16908060020160009054906101000a900473ffffffffffffffffffffffffffffffffffffffff16908060030180546103679061131f565b80601f01602080910402602001604051908101604052809291908181526020018280546103939061131f565b80156103e05780601f106103b5576101008083540402835291602001916103e0565b820191906000526020600020905b8154815290600101906020018083116103c357829003601f168201915b5050505050908060040180546103f59061131f565b80601f01602080910402602001604051908101604052809291908181526020018280546104219061131f565b801561046e5780601f106104435761010080835404028352916020019161046e565b820191906000526020600020905b81548152906001019060200180831161045157829003601f168201915b5050505050908060050180546104839061131f565b80601f01602080910402602001604051908101604052809291908181526020018280546104af9061131f565b80156104fc5780601f106104d1576101008083540402835291602001916104fc565b820191906000526020600020905b8154815290600101906020018083116104df57829003601f168201915b5050505050908060060154905087565b610514610c9a565b600080836040516105259190611201565b90815260200160405180910390206006015403610577576040517f08c379a000000000000000000000000000000000000000000000000000000000815260040161056e9061161a565b60405180910390fd5b6000826040516105879190611201565b90815260200160405180910390206040518060e00160405290816000820160009054906101000a900473ffffffffffffffffffffffffffffffffffffffff1673ffffffffffffffffffffffffffffffffffffffff1673ffffffffffffffffffffffffffffffffffffffff1681526020016001820160009054906101000a900473ffffffffffffffffffffffffffffffffffffffff1673ffffffffffffffffffffffffffffffffffffffff1673ffffffffffffffffffffffffffffffffffffffff1681526020016002820160009054906101000a900473ffffffffffffffffffffffffffffffffffffffff1673ffffffffffffffffffffffffffffffffffffffff1673ffffffffffffffffffffffffffffffffffffffff1681526020016003820180546106b29061131f565b80601f01602080910402602001604051908101604052809291908181526020018280546106de9061131f565b801561072b5780601f106107005761010080835404028352916020019161072b565b820191906000526020600020905b81548152906001019060200180831161070e57829003601f168201915b505050505081526020016004820180546107449061131f565b80601f01602080910402602001604051908101604052809291908181526020018280546107709061131f565b80156107bd5780601f10610792576101008083540402835291602001916107bd565b820191906000526020600020905b8154815290600101906020018083116107a057829003601f168201915b505050505081526020016005820180546107d69061131f565b80601f01602080910402602001604051908101604052809291908181526020018280546108029061131f565b801561084f5780601f106108245761010080835404028352916020019161084f565b820191906000526020600020905b81548152906001019060200180831161083257829003601f168201915b505050505081526020016006820154815250509050919050565b600073ffffffffffffffffffffffffffffffffffffffff166000836040516108919190611201565b908152602001604051809103902060010160009054906101000a900473ffffffffffffffffffffffffffffffffffffffff1673ffffffffffffffffffffffffffffffffffffffff1603610919576040517f08c379a000000000000000000000000000000000000000000000000000000000815260040161091090611686565b60405180910390fd5b600073ffffffffffffffffffffffffffffffffffffffff166000836040516109419190611201565b908152602001604051809103902060020160009054906101000a900473ffffffffffffffffffffffffffffffffffffffff1673ffffffffffffffffffffffffffffffffffffffff16146109c9576040517f08c379a00000000000000000000000000000000000000000000000000000000081526004016109c0906116f2565b60405180910390fd5b336000836040516109da9190611201565b908152602001604051809103902060020160006101000a81548173ffffffffffffffffffffffffffffffffffffffff021916908373ffffffffffffffffffffffffffffffffffffffff16021790555080600083604051610a3a9190611201565b90815260200160405180910390206005019081610a5791906114fc565b505050565b60008083604051610a6d9190611201565b90815260200160405180910390206006015414610abf576040517f08c379a0000000000000000000000000000000000000000000000000000000008152600401610ab69061175e565b60405180910390fd5b6040518060e001604052803373ffffffffffffffffffffffffffffffffffffffff168152602001600073ffffffffffffffffffffffffffffffffffffffff168152602001600073ffffffffffffffffffffffffffffffffffffffff16815260200182815260200160405180602001604052806000815250815260200160405180602001604052806000815250815260200142815250600083604051610b649190611201565b908152602001604051809103902060008201518160000160006101000a81548173ffffffffffffffffffffffffffffffffffffffff021916908373ffffffffffffffffffffffffffffffffffffffff16021790555060208201518160010160006101000a81548173ffffffffffffffffffffffffffffffffffffffff021916908373ffffffffffffffffffffffffffffffffffffffff16021790555060408201518160020160006101000a81548173ffffffffffffffffffffffffffffffffffffffff021916908373ffffffffffffffffffffffffffffffffffffffff1602179055506060820151816003019081610c5c91906114fc565b506080820151816004019081610c7291906114fc565b5060a0820151816005019081610c8891906114fc565b5060c082015181600601559050505050565b6040518060e00160405280600073ffffffffffffffffffffffffffffffffffffffff168152602001600073ffffffffffffffffffffffffffffffffffffffff168152602001600073ffffffffffffffffffffffffffffffffffffffff168152602001606081526020016060815260200160608152602001600081525090565b6000604051905090565b600080fd5b600080fd5b600080fd5b600080fd5b6000601f19601f8301169050919050565b7f4e487b7100000000000000000000000000000000000000000000000000000000600052604160045260246000fd5b610d8082610d37565b810181811067ffffffffffffffff82111715610d9f57610d9e610d48565b5b80604052505050565b6000610db2610d19565b9050610dbe8282610d77565b919050565b600067ffffffffffffffff821115610dde57610ddd610d48565b5b610de782610d37565b9050602081019050919050565b82818337600083830152505050565b6000610e16610e1184610dc3565b610da8565b905082815260208101848484011115610e3257610e31610d32565b5b610e3d848285610df4565b509392505050565b600082601f830112610e5a57610e59610d2d565b5b8135610e6a848260208601610e03565b91505092915050565b60008060408385031215610e8a57610e89610d23565b5b600083013567ffffffffffffffff811115610ea857610ea7610d28565b5b610eb485828601610e45565b925050602083013567ffffffffffffffff811115610ed557610ed4610d28565b5b610ee185828601610e45565b9150509250929050565b600060208284031215610f0157610f00610d23565b5b600082013567ffffffffffffffff811115610f1f57610f1e610d28565b5b610f2b84828501610e45565b91505092915050565b600073ffffffffffffffffffffffffffffffffffffffff82169050919050565b6000610f5f82610f34565b9050919050565b610f6f81610f54565b82525050565b600081519050919050565b600082825260208201905092915050565b60005b83811015610faf578082015181840152602081019050610f94565b60008484015250505050565b6000610fc682610f75565b610fd08185610f80565b9350610fe0818560208601610f91565b610fe981610d37565b840191505092915050565b6000819050919050565b61100781610ff4565b82525050565b600060e082019050611022600083018a610f66565b61102f6020830189610f66565b61103c6040830188610f66565b818103606083015261104e8187610fbb565b905081810360808301526110628186610fbb565b905081810360a08301526110768185610fbb565b905061108560c0830184610ffe565b98975050505050505050565b61109a81610f54565b82525050565b600082825260208201905092915050565b60006110bc82610f75565b6110c681856110a0565b93506110d6818560208601610f91565b6110df81610d37565b840191505092915050565b6110f381610ff4565b82525050565b600060e0830160008301516111116000860182611091565b5060208301516111246020860182611091565b5060408301516111376040860182611091565b506060830151848203606086015261114f82826110b1565b9150506080830151848203608086015261116982826110b1565b91505060a083015184820360a086015261118382826110b1565b91505060c083015161119860c08601826110ea565b508091505092915050565b600060208201905081810360008301526111bd81846110f9565b905092915050565b600081905092915050565b60006111db82610f75565b6111e581856111c5565b93506111f5818560208601610f91565b80840191505092915050565b600061120d82846111d0565b915081905092915050565b7f50726f646f74746f206e6f6e207265676973747261746f2e0000000000000000600082015250565b600061124e601883610f80565b915061125982611218565b602082019050919050565b6000602082019050818103600083015261127d81611241565b9050919050565b7f466173652070726f64757a696f6e65206769612720726567697374726174612e600082015250565b60006112ba602083610f80565b91506112c582611284565b602082019050919050565b600060208201905081810360008301526112e9816112ad565b9050919050565b7f4e487b7100000000000000000000000000000000000000000000000000000000600052602260045260246000fd5b6000600282049050600182168061133757607f821691505b60208210810361134a576113496112f0565b5b50919050565b60008190508160005260206000209050919050565b60006020601f8301049050919050565b600082821b905092915050565b6000600883026113b27fffffffffffffffffffffffffffffffffffffffffffffffffffffffffffffffff82611375565b6113bc8683611375565b95508019841693508086168417925050509392505050565b6000819050919050565b60006113f96113f46113ef84610ff4565b6113d4565b610ff4565b9050919050565b6000819050919050565b611413836113de565b61142761141f82611400565b848454611382565b825550505050565b600090565b61143c61142f565b61144781848461140a565b505050565b5b8181101561146b57611460600082611434565b60018101905061144d565b5050565b601f8211156114b05761148181611350565b61148a84611365565b81016020851015611499578190505b6114ad6114a585611365565b83018261144c565b50505b505050565b600082821c905092915050565b60006114d3600019846008026114b5565b1980831691505092915050565b60006114ec83836114c2565b9150826002028217905092915050565b61150582610f75565b67ffffffffffffffff81111561151e5761151d610d48565b5b611528825461131f565b61153382828561146f565b600060209050601f8311600181146115665760008415611554578287015190505b61155e85826114e0565b8655506115c6565b601f19841661157486611350565b60005b8281101561159c57848901518255600182019150602085019450602081019050611577565b868310156115b957848901516115b5601f8916826114c2565b8355505b6001600288020188555050505b505050505050565b7f50726f646f74746f206e6f6e2074726f7661746f2e0000000000000000000000600082015250565b6000611604601583610f80565b915061160f826115ce565b602082019050919050565b60006020820190508181036000830152611633816115f7565b9050919050565b7f50726f64757a696f6e65206e6f6e20636f6d706c65746174612e000000000000600082015250565b6000611670601a83610f80565b915061167b8261163a565b602082019050919050565b6000602082019050818103600083015261169f81611663565b9050919050565b7f4365727469666963617a696f6e652067696127206170706c69636174612e0000600082015250565b60006116dc601e83610f80565b91506116e7826116a6565b602082019050919050565b6000602082019050818103600083015261170b816116cf565b9050919050565b7f50726f646f74746f2067696127207265676973747261746f2e00000000000000600082015250565b6000611748601983610f80565b915061175382611712565b602082019050919050565b600060208201905081810360008301526117778161173b565b905091905056fea2646970667358221220eac7195e5c0722265927011d62d111f2b160b9365b71e30a674dd9a5b53b28d764736f6c634300081c0033",
  "linkReferences": {},
  "deployedLinkReferences": {}
}